:060000000A128A11EE2F26
:100E90007E088A007F0882000A128A1148270A12F7
:100EA0008A118000840A04087D0603190034FF0AB1
:100EB0000319FE0A4C2F0034FF348134813481340D
:100EC00042343C34003400340034FF3499349934D3
:100ED00099349934813400340034FF34FE340434BE
:100EE000083408340434FE34FF34003400348134D0
:100EF0008134FF34FF3481348134003400340034D1
:100F000000340034003400340034003483160313FA
:100F10008601880183120313860188012B30F200B9
:100F20000030F300F601D72FF401F501F701083086
:100F30007702031C9C2F9D2F9E2FC22F0130F000A3
:100F4000770AA42F0310F00DFF3E031DA22F700897
:100F500083120313860020307707F00076087007AD
:100F6000F100710884008313000988000630F10045
:100F70003030F000F00BBA2FF10BBA2F0000013027
:100F8000F707972F0130F4070318F50A0030F5072B
:100F90007508803AFF0080307F02031DD12F0A3090
:100FA0007402031CD42FD52F962F0130F607720838
:100FB000F83EF00073080318013EFF3EF10071088F
:100FC000803A803C031DE62F70087602031CE92F4F
:100FD000EA2F942F922F0A128A11002883134B3084
:100FE000FD000730FE005B30FF00203084000A1255
:100FF0008A114C270A128A1183010A128A11862F3C
:04400E00F12FFF3F50
:00000001FF
